:020000040800F2
:1000000000500020310C0008750B0008810B00081F
:10001000870B00088D0B0008930B00080000000000
:10002000000000000000000000000000990B000824
:10003000A50B000800000000B10B0008BD0B000874
:10004000790C0008790C0008790C0008790C00087C
:10005000790C0008790C0008790C0008790C00086C
:10006000790C0008790C0008790C0008790C00085C
:10007000790C0008790C0008790C0008790C00084C
:10008000790C0008790C0008790C0008790C00083C
:10009000790C0008790C0008790C0008790C00082C
:1000A000790C0008790C0008790C0008790C00081C
:1000B000790C0008790C0008790C0008790C00080C
:1000C000790C0008790C0008790C0008790C0008FC
:1000D000790C0008790C0008790C0008790C0008EC
:1000E000790C0008790C0008790C00080000000069
:1000F0000000000000000000000000000000000000
:0C01000000000000000000005FF808F1A3
:10010C0010B5054C237833B9044B13B10448AFF345
:10011C0000800123237010BD0C00002000000000A3
:10012C003426000808B5034B1BB103490348AFF351
:10013C00008008BD000000001000002034260008DC
:10014C004FF0FF0C1CEAD0521EBF1CEAD15392EAAE
:10015C000C0F93EA0C0F6FD01A4480EA010C40028A
:10016C0018BF5FEA41211ED04FF0006343EA5010E4
:10017C0043EA5111A0FB01310CF00040B1F5000F26
:10018C003EBF490041EAD3715B0040EA010062F1D5
:10019C007F02FD2A1DD8B3F1004F40EBC25008BFBF
:1001AC0020F00100704790F0000F0CF0004C08BFDD
:1001BC0049024CEA502040EA51207F3AC2BFD2F1AA
:1001CC00FF0340EAC250704740F400004FF00003B8
:1001DC00013A5DDC12F1190FDCBF00F000407047F2
:1001EC00C2F10002410021FA02F1C2F1200200FA30
:1001FC0002FC5FEA310040F1000053EA4C0308BFF7
:10020C0020EADC70704792F0000F00F0004C02BF47
:10021C00400010F4000F013AF9D040EA0C0093F0C2
:10022C00000F01F0004C02BF490011F4000F013B1C
:10023C00F9D041EA0C018FE70CEAD15392EA0C0F8A
:10024C0018BF93EA0C0F0AD030F0004C18BF31F0F5
:10025C00004CD8D180EA010000F00040704790F0CB
:10026C00000F17BF90F0004F084691F0000F91F06F
:10027C00004F14D092EA0C0F01D142020FD193EA35
:10028C000C0F03D14B0218BF084608D180EA0100BD
:10029C0000F0004040F0FE4040F40000704740F099
:1002AC00FE4040F44000704780F0004002E000BF88
:1002BC0081F0004142001FBF5FEA410392EA030F45
:1002CC007FEA226C7FEA236C6AD04FEA1262D2EB8F
:1002DC001363C1BFD218414048404140B8BF5B4294
:1002EC00192B88BF704710F0004F40F4000020F02D
:1002FC007F4018BF404211F0004F41F4000121F043
:10030C007F4118BF494292EA030F3FD0A2F101028C
:10031C0041FA03FC10EB0C00C3F1200301FA03F1CA
:10032C0000F0004302D5494260EB4000B0F5000FED
:10033C0013D3B0F1807F06D340084FEA310102F1AC
:10034C000102FE2A51D2B1F1004F40EBC25008BF5E
:10035C0020F0010040EA03007047490040EB000028
:10036C00013A28BFB0F5000FEDD2B0FA80FCACF129
:10037C00080CB2EB0C0200FA0CF0AABF00EBC25056
:10038C0052421843BCBFD0401843704792F0000F44
:10039C0081F4000106BF80F400000132013BB5E797
:1003AC004FEA41037FEA226C18BF7FEA236C21D00D
:1003BC0092EA030F04D092F0000F08BF0846704772
:1003CC0090EA010F1CBF0020704712F07F4F04D140
:1003DC00400028BF40F00040704712F100723CBF53
:1003EC0000F50000704700F0004343F0FE4040F47D
:1003FC00000070477FEA226216BF08467FEA23633B
:10040C000146420206BF5FEA412390EA010F40F425
:10041C00800070474FF0000304E000BF10F0004371
:10042C0048BF40425FEA000C08BF704743F0964358
:10043C0001464FF000001CE050EA010208BF704773
:10044C004FF000030AE000BF50EA010208BF7047FA
:10045C0011F0004302D5404261EB41015FEA010C0F
:10046C0002BF84460146002043F0B64308BFA3F107
:10047C008053A3F50003BCFA8CF2083AA3EBC253E9
:10048C0010DB01FA02FC634400FA02FCC2F1200208
:10049C00BCF1004F20FA02F243EB020008BF20F03F
:1004AC000100704702F1200201FA02FCC2F12002A5
:1004BC0050EA4C0021FA02F243EB020008BF20EA9A
:1004CC00DC70704742000ED2B2F1FE4F0BD34FF0EE
:1004DC009E03B3EB126209D44FEA002343F00043AE
:1004EC0023FA02F070474FF00000704712F1610FD1
:1004FC0001D1420202D14FF0FF3070474FF00000A3
:10050C00704700BF80B58AB002AF00F0B1FB00F0BD
:10051C00E5F800F025FA00F0AFF900F01BF907F14F
:10052C00080307F118004FF400524FF4805100F00B
:10053C0045F83B4607F110004FF400424FF4804160
:10054C0000F03CF83B8B01221946194800F082FE62
:10055C0007F10800174B00934FF47A7300221649E9
:10056C0000F074F83846134B00934FF47A7304225E
:10057C00114900F06BF807F11803184600F036F833
:10058C0007F11003184600F031F84FF47A7000F0C0
:10059C00D1FB07F11803184600F040F807F11003DF
:1005AC00184600F03BF84FF47A7000F0C3FBE2E71A
:1005BC00000C0140CDCCCC3E2800002080B485B08E
:1005CC0000AFF8607B600B467B8113463B81FB6878
:1005DC007A891A80FB683A895A80FB687A685A6073
:1005EC0000BF1437BD4680BC7047000080B582B098
:1005FC0000AF78607B681B8801221946064800F022
:10060C0029FE7B685B8800221946034800F022FE15
:10061C0000BF0837BD4680BD000C014080B582B0DC
:10062C0000AF78607B681B8800221946064800F0F2
:10063C0011FE7B685B8801221946034800F00AFE14
:10064C0000BF0837BD4680BD000C014080B588B0A6
:10065C0000AFF860B9607A603B60FB68BA681A60FA
:10066C0001F0E8F90146FB681B681B683A68B1FBAE
:10067C00F2F2DA6201F0DEF9F861FA693B68B2FB7A
:10068C00F3F3013BBB61FB681B681B68DB6A01333E
:10069C001846FFF7BFFE0346B96A1846FFF750FD30
:1006AC0003461846FFF70EFF03467B61FB687A682A
:1006BC005A60FB681B68BA695A60FB681B681B6848
:1006CC007A695A63FB681A68FB685B6819461046BE
:1006DC0001F03AFA00BF2037BD4680BD80B590B01E
:1006EC0000AF07F1180328220021184601F094FFEF
:1006FC003B1D00221A605A609A60DA601A6102236C
:10070C00BB610123BB621023FB6200237B6307F1F7
:10071C001803184600F0B6FD0346002B01D000F07C
:10072C005FF90F237B600023BB600023FB60002379
:10073C003B6100237B613B1D0021184601F006F84C
:10074C000346002B01D000F04BF900BF4037BD46EB
:10075C0080BD000080B590B000AF07F138030022D7
:10076C001A605A6007F11C0300221A605A609A60E2
:10077C00DA601A615A619A613B4600221A605A602B
:10078C009A60DA601A615A619A61394B394A1A6077
:10079C00374B00225A60364B60229A60344B002251
:1007AC00DA60334B00221A61314B00225A61304B14
:1007BC0000229A612E4801F09CF90346002B01D0CF
:1007CC0000F00EF90023BB630023FB6307F1380331
:1007DC001946274801F0B7FE0346002B01D000F064
:1007EC00FFF86023FB6100233B6200237B62002344
:1007FC00BB620023FB6200233B6300237B6307F196
:10080C001C03002219461A4801F0C6F90346002BB6
:10081C0001D000F0E5F807F11C0304221946144836
:10082C0001F0BAF90346002B01D000F0D9F80023EF
:10083C003B6000237B600023BB600023FB60002334
:10084C003B614FF400537B610023BB613B4619466F
:10085C00074801F020FE0346002B01D000F0C0F841
:10086C00034800F02FF900BF4037BD4680BD00BFE4
:10087C0028000020002C014080B58EB000AF07F19D
:10088C00280300221A605A609A60DA6007F120038C
:10089C0000221A605A603B1D00221A605A609A604E
:1008AC00DA601A615A619A612C4B4FF080421A60DF
:1008BC002A4B03225A60294B00229A60274BC822EC
:1008CC00DA60264B00221A61244B00229A612348DD
:1008DC0001F0E4F80346002B01D000F081F84FF44E
:1008EC008053BB6207F1280319461C4801F01AFA21
:1008FC000346002B01D000F073F8184801F0F9F80A
:10090C000346002B01D000F06BF800233B62002360
:10091C007B6207F120031946104801F014FE0346D0
:10092C00002B01D000F05CF860237B600023BB60DF
:10093C000023FB6000237B613B1D00221946074806
:10094C0001F02AF90346002B01D000F049F80348C6
:10095C0000F0B8F800BF3837BD4680BD68000020F5
:10096C0080B586B000AF07F1080300221A605A6008
:10097C009A60DA60184B9B69174A43F00403936141
:10098C00154B9B6903F004037B607B68124B9B69DE
:10099C00114A43F0080393610F4B9B6903F0080362
:1009AC003B603B6800224FF470410C4800F052FC55
:1009BC004FF47043BB600123FB6000233B610223B7
:1009CC007B6107F108031946044800F0BBFA00BF2D
:1009DC001837BD4680BD00BF00100240000C01401E
:1009EC0080B400AF00BFBD4680BC704780B485B0FA
:1009FC0000AF154B9B69144A43F001039361124BF2
:100A0C009B6903F00103BB60BB680F4BDB690E4AAB
:100A1C0043F08053D3610C4BDB6903F080537B6054
:100A2C007B680A4B5B68FB60FB6823F0E063FB6050
:100A3C00FB6843F00073FB60044AFB68536000BF23
:100A4C001437BD4680BC70470010024000000140C6
:100A5C0080B485B000AF78607B681B68094A93420C
:100A6C000BD1094B9B69084A43F400639361064B15
:100A7C009B6903F40063FB60FB6800BF1437BD4641
:100A8C0080BC7047002C01400010024080B485B03F
:100A9C0000AF78607B681B68B3F1804F0BD1084BBB
:100AAC00DB69074A43F00103D361054BDB6903F0B3
:100ABC000103FB60FB6800BF1437BD4680BC704768
:100ACC000010024080B588B000AF786007F11003C9
:100ADC0000221A605A609A60DA607B681B681F4AB1
:100AEC00934219D11E4B9B691D4A43F00403936139
:100AFC001B4B9B6903F00403FB60FB684FF44073D2
:100B0C003B6102237B610223FB6107F11003194651
:100B1C00144800F017FA1CE07B681B68B3F1804F97
:100B2C0017D10F4B9B690E4A43F0040393610C4B96
:100B3C009B6903F00403BB60BB6801233B61022388
:100B4C007B610223FB6107F110031946054800F095
:100B5C00F9F900BF2037BD4680BD00BF002C014015
:100B6C00001002400008014080B400AF00BFBD4639
:100B7C0080BC704780B400AFFEE780B400AFFEE7E6
:100B8C0080B400AFFEE780B400AFFEE780B400AFE6
:100B9C0000BFBD4680BC704780B400AF00BFBD46EF
:100BAC0080BC704780B400AF00BFBD4680BC7047AE
:100BBC0080B500AF00F0A2F800BF80BD80B400AFDC
:100BCC00154B1B68144A43F001031360124B5A680F
:100BDC001149124B13404B600F4B1B680E4A23F00C
:100BEC00847323F4803313600B4B1B680A4A23F481
:100BFC0080231360084B5B68074A23F4FE035360A1
:100C0C00054B4FF41F029A60054B4FF000629A603F
:100C1C0000BFBD4680BC7047001002400000FFF8CA
:100C2C0000ED00E0002103E00B4B5B584350043116
:100C3C000A480B4B42189A42F6D30A4A02E00023A8
:100C4C0042F8043B084B9A42F9D3FFF7B7FF01F087
:100C5C00BFFCFFF757FC70477C2600080000002003
:100C6C000C0000200C000020AC000020FEE700006F
:100C7C0080B500AF084B1B68074A43F010031360A4
:100C8C00032000F02BF9002000F008F8FFF7AEFE6F
:100C9C000023184680BD00BF0020024080B582B002
:100CAC0000AF7860124B1A68124B1B7819464FF440
:100CBC007A73B3FBF1F3B2FBF3F3184600F035F99A
:100CCC000346002B01D001230EE07B680F2B0AD8C2
:100CDC00002279684FF0FF3000F00BF9064A7B6870
:100CEC001360002300E0012318460837BD4680BD81
:100CFC0000000020080000200400002080B400AF99
:100D0C00054B1B781A46054B1B681344034A1360AA
:100D1C0000BFBD4680BC704708000020A800002022
:100D2C0080B400AF024B1B681846BD4680BC7047B0
:100D3C00A800002080B584B000AF7860FFF7F0FF0A
:100D4C00B8607B68FB60FB68B3F1FF3F05D00A4BD2
:100D5C001B781A46FB681344FB6000BFFFF7E0FFEB
:100D6C000246BB68D31AFA689A42F7D800BF00BF94
:100D7C001037BD4680BD00BF0800002080B485B090
:100D8C0000AF78607B6803F00703FB600C4BDB68FB
:100D9C00BB60BA684FF6FF031340BB60FB681A02D6
:100DAC00BB68134343F0BF6343F40033BB60044A96
:100DBC00BB68D36000BF1437BD4680BC704700BF12
:100DCC0000ED00E080B400AF044BDB681B0A03F0BD
:100DDC0007031846BD4680BC704700BF00ED00E01D
:100DEC0080B483B000AF03463960FB7197F90730CC
:100DFC00002B0BDA3B68DAB20C49FB7903F00F03DA
:100E0C00043B1201D2B20B441A7609E03B68DAB209
:100E1C00074997F907301201D2B20B4483F800232B
:100E2C0000BF0C37BD4680BC704700BF00ED00E032
:100E3C0000E100E080B489B000AFF860B9607A607E
:100E4C00FB6803F00703FB61FB69C3F10703042B89
:100E5C0028BF0423BB61FB690433062B02D9FB6951
:100E6C00033B00E000237B614FF0FF32BB6902FAC9
:100E7C0003F3DA43BB681A407B699A404FF0FF31A9
:100E8C007B6901FA03F3D9437B680B401343184683
:100E9C002437BD4680BC704780B582B000AF786007
:100EAC007B68013BB3F1807F01D301230FE00A4A39
:100EBC007B68013B53600F214FF0FF30FFF790FF31
:100ECC00054B00229A60044B07221A600023184637
:100EDC000837BD4680BD00BF10E000E080B582B091
:100EEC0000AF78607868FFF749FF00BF0837BD4650
:100EFC0080BD80B586B000AF0346B9607A60FB73E5
:100F0C0000237B61FFF75EFF78617A68B9687869C6
:100F1C00FFF790FF024697F90F3011461846FFF77E
:100F2C005FFF00BF1837BD4680BD80B582B000AFF3
:100F3C0078607868FFF7B0FF034618460837BD465F
:100F4C0080BD000080B48BB000AF786039600023A6
:100F5C00FB610023BB6100237B6100233B62002308
:100F6C003B6100237B6269E101227B6A02FA03F395
:100F7C00FB613B681B68FA691340BB61BA69FB698A
:100F8C009A4240F058813B685B689A4A93425ED023
:100F9C00984A934275D8984A934258D0964A9342AD
:100FAC006FD8964A934252D0944A934269D8944A45
:100FBC0093424CD0924A934263D8924A934246D081
:100FCC00904A93425DD8122B2AD8122B59D801A2E1
:100FDC0052F823F05B100008351000084710000889
:100FEC00891000088F1000088F1000088F1000085F
:100FFC008F1000088F1000088F1000088F10000849
:10100C008F1000088F1000088F1000088F10000838
:10101C008F1000088F1000083D10000851100008B8
:10102C00794A934213D02CE03B68DB683B6229E0A1
:10103C003B68DB6804333B6224E03B68DB680833C5
:10104C003B621FE03B68DB680C333B621AE03B6899
:10105C009B68002B02D104233B6213E03B689B6826
:10106C00012B05D108233B627B68FA691A6109E000
:10107C0008233B627B68FA695A6103E000233B62F8
:10108C0000E000BFBB69FF2B01D87B6801E07B68E7
:10109C000433FB60BB69FF2B02D87B6A9B0002E028
:1010AC007B6A083B9B003B61FB681A680F213B691C
:1010BC0001FA03F3DB431A40396A3B6901FA03F383
:1010CC001A43FB681A603B685B6803F08053002B83
:1010DC0000F0B1804D4B9B694C4A43F00103936186
:1010EC004A4B9B6903F00103BB60BB68484A7B6AAF
:1010FC009B08023352F823307B617B6A03F00303B5
:10110C009B000F2202FA03F3DB437A6913407B61E5
:10111C007B68404A934213D07B683F4A93420DD080
:10112C007B683E4A934207D07B683D4A934201D18B
:10113C00032306E0042304E0022302E0012300E081
:10114C0000237A6A02F00302920093407A691343F7
:10115C007B612F497B6A9B0802337A6941F8232013
:10116C003B685B6803F48033002B06D02D4B1A6868
:10117C002C49BB6913430B6006E02A4B1A68BB6908
:10118C00DB43284913400B603B685B6803F4003376
:10119C00002B06D0234B5A682249BB6913434B6082
:1011AC0006E0204B5A68BB69DB431E4913404B6079
:1011BC003B685B6803F48013002B06D0194B9A68CC
:1011CC001849BB6913438B6006E0164B9A68BB69E0
:1011DC00DB43144913408B603B685B6803F40013DA
:1011EC00002B21D00F4BDA680E49BB691343CB603F
:1011FC0021E000BF0000321000003110000022106E
:10120C00000021100000121000001110001002400C
:10121C000000014000080140000C0140001001409A
:10122C000014014000040140094BDA68BB69DB4340
:10123C0007491340CB607B6A01337B627B6A0F2BBF
:10124C007FF692AE00BF00BF2C37BD4680BC704706
:10125C000004014080B483B000AF78600B467B8003
:10126C0013467B707B78002B03D07A887B681A61DD
:10127C0003E07B881A047B681A6100BF0C37BD46FB
:10128C0080BC704780B586B000AF786000233B61AE
:10129C007B681B6803F00103002B00F08780924BE6
:1012AC005B6803F00C03042B0CD08F4B5B6803F0D2
:1012BC000C03082B12D18C4B5B6803F48033B3F511
:1012CC00803F0BD1884B1B6803F40033002B6CD090
:1012DC007B685B68002B68D101232DE27B685B681F
:1012EC00B3F5803F06D1804B1B687F4A43F48033B3
:1012FC0013602EE07B685B68002B0CD17A4B1B686B
:10130C00794A23F480331360774B1B68764A23F4B5
:10131C00802313601DE07B685B68B3F5A02F0CD1B4
:10132C00714B1B68704A43F4802313606E4B1B682F
:10133C006D4A43F4803313600BE06B4B1B686A4AB5
:10134C0023F480331360684B1B68674A23F48023B3
:10135C0013607B685B68002B13D0FFF7E1FC3861EE
:10136C0008E0FFF7DDFC02463B69D31A642B01D978
:10137C000323E1E15C4B1B6803F40033002BF0D03A
:10138C0014E0FFF7CDFC386108E0FFF7C9FC02461A
:10139C003B69D31A642B01D90323CDE1524B1B6853
:1013AC0003F40033002BF0D100E000BF7B681B6816
:1013BC0003F00203002B63D04B4B5B6803F00C0370
:1013CC00002B0BD0484B5B6803F00C03082B1CD193
:1013DC00454B5B6803F48033002B16D1424B1B68E2
:1013EC0003F00203002B05D07B681B69012B01D095
:1013FC000123A1E13C4B1B6823F0F8027B685B697D
:10140C00DB00394913430B603AE07B681B69002B06
:10141C0020D0364B01221A60FFF782FC386108E0BD
:10142C00FFF77EFC02463B69D31A022B01D903233A
:10143C0082E12D4B1B6803F00203002BF0D02A4BEA
:10144C001B6823F0F8027B685B69DB0026491343B9
:10145C000B6015E0254B00221A60FFF761FC386128
:10146C0008E0FFF75DFC02463B69D31A022B01D959
:10147C00032361E11C4B1B6803F00203002BF0D12A
:10148C007B681B6803F00803002B39D07B689B69D1
:10149C00002B19D0164B01221A60FFF741FC386162
:1014AC0008E0FFF73DFC02463B69D31A022B01D939
:1014BC00032341E10C4B5B6A03F00203002BF0D0D9
:1014CC00012000F0CBFA1BE0094B00221A60FFF759
:1014DC0027FC38610EE0FFF723FC02463B69D31A68
:1014EC00022B07D9032327E10010024000004242DF
:1014FC0080044242924B5B6A03F00203002BEAD158
:10150C007B681B6803F00403002B00F0A68000230B
:10151C00FB758B4BDB6903F08053002B0DD1884B93
:10152C00DB69874A43F08053D361854BDB6903F059
:10153C008053FB60FB680123FB75824B1B6803F433
:10154C008073002B18D17F4B1B687E4A43F4807349
:10155C001360FFF7E5FB386108E0FFF7E1FB02469B
:10156C003B69D31A642B01D90323E5E0754B1B6847
:10157C0003F48073002BF0D07B68DB68012B06D161
:10158C006F4B1B6A6E4A43F0010313622DE07B68BC
:10159C00DB68002B0CD16A4B1B6A694A23F00103F0
:1015AC001362674B1B6A664A23F0040313621CE048
:1015BC007B68DB68052B0CD1614B1B6A604A43F0DE
:1015CC00040313625E4B1B6A5D4A43F00103136212
:1015DC000BE05B4B1B6A5A4A23F001031362584B16
:1015EC001B6A574A23F0040313627B68DB68002BE9
:1015FC0015D0FFF795FB38610AE0FFF791FB024627
:10160C003B69D31A41F28832934201D9032393E008
:10161C004B4B1B6A03F00203002BEED014E0FFF7D8
:10162C007FFB38610AE0FFF77BFB02463B69D31A6C
:10163C0041F28832934201D903237DE0404B1B6A6F
:10164C0003F00203002BEED1FB7D012B05D13C4BAB
:10165C00DB693B4A23F08053D3617B68DB69002B49
:10166C0069D0374B5B6803F00C03082B61D07B68A7
:10167C00DB69022B46D1344B00221A60FFF750FB7A
:10168C00386108E0FFF74CFB02463B69D31A022B8A
:10169C0001D9032350E02A4B1B6803F00073002B85
:1016AC00F0D17B681B6AB3F5803F08D1244B5B6893
:1016BC0023F400327B689B68214913434B60204B19
:1016CC005B6823F474127B68196A7B685B6A0B4352
:1016DC001B4913434B601C4B01221A60FFF720FB84
:1016EC00386108E0FFF71CFB02463B69D31A022B5A
:1016FC0001D9032320E0124B1B6803F00073002B6D
:10170C00F0D018E0104B00221A60FFF709FB38618B
:10171C0008E0FFF705FB02463B69D31A022B01D9FF
:10172C00032309E0064B1B6803F00073002BF0D178
:10173C0001E0012300E0002318461837BD4680BDA8
:10174C0000100240007000406000424280B584B03E
:10175C0000AF786039600023FB607E4B1B6803F0A0
:10176C0007033A689A4210D97A4B1B6823F0070298
:10177C0078493B6813430B60764B1B6803F00703F7
:10178C003A689A4201D00123E0E07B681B6803F0C1
:10179C000203002B20D07B681B6803F00403002B92
:1017AC0005D06D4B5B686C4A43F4E06353607B6817
:1017BC001B6803F00803002B05D0674B5B68664A77
:1017CC0043F460535360644B5B6823F0F0027B6816
:1017DC009B68614913434B607B681B6803F00103F2
:1017EC00002B6AD07B685B68012B07D15A4B1B68B6
:1017FC0003F40033002B15D10123A7E07B685B6851
:10180C00022B07D1544B1B6803F00073002B09D13A
:10181C0001239BE0504B1B6803F00203002B01D10A
:10182C00012393E04C4B5B6823F003027B685B68FD
:10183C00494913434B60FFF773FAF8607B685B68A8
:10184C00012B12D10AE0FFF76BFA0246FB68D31AA0
:10185C0041F28832934201D9032377E03E4B5B6817
:10186C0003F00C03042BEED127E07B685B68022BA2
:10187C001DD10AE0FFF754FA0246FB68D31A41F275
:10188C008832934201D9032360E0334B5B6803F049
:10189C000C03082BEED110E0FFF742FA0246FB686E
:1018AC00D31A41F28832934201D903234EE02A4BDA
:1018BC005B6803F00C03002BEED1264B1B6803F086
:1018CC0007033A689A4210D2224B1B6823F0070296
:1018DC0020493B6813430B601E4B1B6803F0070346
:1018EC003A689A4201D0012330E07B681B6803F010
:1018FC000403002B08D0184B5B6823F4E0627B6870
:10190C00DB68154913434B607B681B6803F00803C5
:10191C00002B09D0104B5B6823F460527B681B6969
:10192C00DB000D4913434B6000F01CF802460A4BD8
:10193C005B681B0903F00F030849CB5C22FA03F325
:10194C00074A13600020FFF7A9F900231846103747
:10195C00BD4680BD00200240001002405C260008FD
:10196C000000002090B48AB000AF294B3C1D0FCB77
:10197C0084E80F0040F201233B800023FB6100232D
:10198C00BB6100237B6200237B6100233B62214B04
:10199C005B68FB61FB6903F00C03042B02D0082B82
:1019AC0003D02BE01C4B3B622BE0FB699B0C03F040
:1019BC000F0328333B4413F8243C7B61FB6903F48D
:1019CC008033002B12D0134B5B685B0C03F00103CC
:1019DC0028333B4413F8283CBB617B690E4A03FB5C
:1019EC0002F2BB69B2FBF3F37B6204E07B690B4A46
:1019FC0002FB03F37B627B6A3B6202E0064B3B62B9
:101A0C0000BF3B6A18462837BD4690BC704700BFE4
:101A1C004C2600080010024000127A0000093D001C
:101A2C0080B400AF024B1B681846BD4680BC7047A3
:101A3C000000002080B500AFFFF7F2FF0246054B17
:101A4C005B68DB0A03F007030349CB5C22FA03F360
:101A5C00184680BD001002406C26000880B485B08A
:101A6C0000AF78600B4B1B680B4AA2FB03235B0A8D
:101A7C007A6802FB03F3FB6000BF00BFFB685A1ED1
:101A8C00FA60002BF8D100BF00BF1437BD4680BCF4
:101A9C00704700BF00000020D34D621080B582B0AB
:101AAC0000AF78607B68002B01D101231DE07B68BF
:101ABC0093F83D30DBB2002B06D17B68002283F813
:101ACC003C207868FEF7E2FF7B68022283F83D2019
:101ADC007B681A687B6804331946104600F00EFACE
:101AEC007B68012283F83D20002318460837BD4649
:101AFC0080BD80B582B000AF78607B68002B01D1CF
:101B0C0001231DE07B6893F83D30DBB2002B06D13E
:101B1C007B68002283F83C207868FEF799FF7B688D
:101B2C00022283F83D207B681A687B6804331946CF
:101B3C00104600F0E3F97B68012283F83D20002376
:101B4C0018460837BD4680BD80B582B000AF7860BE
:101B5C0039607B681B6801223968184600F079FCF3
:101B6C007B681B680B4A934207D17B681B685A6CD5
:101B7C007B681B6842F400425A647B681B681A68D5
:101B8C007B681B6842F001021A6000231846083774
:101B9C00BD4680BD002C014080B584B000AFF8601C
:101BAC00B9607A60FB6893F83C30012B01D10223B9
:101BBC00B4E0FB68012283F83C20FB68022283F826
:101BCC003D207B680C2B00F29F8001A252F823F081
:101BDC00111C0008151D0008151D0008151D000816
:101BEC00511C0008151D0008151D0008151D0008C6
:101BFC00931C0008151D0008151D0008151D000874
:101C0C00D31C0008FB681B68B968184600F0DCF9A7
:101C1C00FB681B689A69FB681B6842F008029A61B2
:101C2C00FB681B689A69FB681B6822F004029A61C6
:101C3C00FB681B689969BB681A69FB681B680A43D7
:101C4C009A6162E0FB681B68B968184600F028FAD4
:101C5C00FB681B689A69FB681B6842F400629A6116
:101C6C00FB681B689A69FB681B6822F480629A61A6
:101C7C00FB681B689969BB681B691A02FB681B68C7
:101C8C000A439A6141E0FB681B68B968184600F08A
:101C9C0077FAFB681B68DA69FB681B6842F008027C
:101CAC00DA61FB681B68DA69FB681B6822F00402C6
:101CBC00DA61FB681B68D969BB681A69FB681B6829
:101CCC000A43DA6121E0FB681B68B968184600F02A
:101CDC00C7FAFB681B68DA69FB681B6842F4006290
:101CEC00DA61FB681B68DA69FB681B6822F48062A6
:101CFC00DA61FB681B68D969BB681B691A02FB684F
:101D0C001B680A43DA6100E000BFFB68012283F81C
:101D1C003D20FB68002283F83C2000231846103736
:101D2C00BD4680BD80B584B000AF786039600023BB
:101D3C00FB607B6893F83C30012B01D10223D8E087
:101D4C007B68012283F83C207B68022283F83D20CB
:101D5C007B681B689B68FB60FB6823F07703FB6068
:101D6C00FB6823F47F43FB607B681B68FA689A600E
:101D7C003B681B68B3F5005F52D0B3F5005F00F20F
:101D8C00AE80B3F5805F27D0B3F5805F00F2A780FB
:101D9C00702B2AD0702B00F2A280602B63D0602BAA
:101DAC0000F29D80502B4ED0502B00F29880402B8F
:101DBC0069D0402B00F29380302B00F08980302BBF
:101DCC0000F28D80202B7CD0202B00F28880002B01
:101DDC0069D0102B6ED082E07B681B689A687B6898
:101DEC001B6822F007029A607AE07B6818683B68EF
:101DFC0099683B685A683B68DB6800F009FB7B68B4
:101E0C001B689B68FB60FB6823F07703FB60FB6837
:101E1C0043F07703FB607B681B68FA689A605FE0AD
:101E2C007B6818683B6899683B685A683B68DB6854
:101E3C0000F0EEFA7B681B689A687B681B6842F4BA
:101E4C0080429A604CE07B6818683B6859683B6834
:101E5C00DB681A4600F058FA7B681B68502118465C
:101E6C0000F0B7FA3CE07B6818683B6859683B683F
:101E7C00DB681A4600F07AFA7B681B68602118460A
:101E8C0000F0A7FA2CE07B6818683B6859683B683F
:101E9C00DB681A4600F038FA7B681B68402118464C
:101EAC0000F097FA1CE07B681B680021184600F0D4
:101EBC0090FA15E07B681B681021184600F089FA2F
:101ECC000EE07B681B682021184600F082FA07E0C0
:101EDC007B681B683021184600F07BFA00E000BFDD
:101EEC007B68012283F83D207B68002283F83C202C
:101EFC00002318461037BD4680BD000080B485B065
:101F0C0000AF786039600023FB607B681B68FB6066
:101F1C007B682A4A93420BD07B68B3F1804F07D081
:101F2C007B68274A934203D07B68264A934208D1A8
:101F3C00FB6823F07003FB603B685B68FA68134333
:101F4C00FB607B681D4A93420BD07B68B3F1804FDA
:101F5C0007D07B681A4A934203D07B68194A934294
:101F6C0008D1FB6823F44073FB603B68DB68FA68BC
:101F7C001343FB60FB6823F08003FB603B685B69E9
:101F8C00FA681343FB607B68FA681A603B689A68CE
:101F9C007B68DA623B681A687B689A627B68074ADE
:101FAC00934203D13B681A697B681A637B680122F0
:101FBC005A6100BF1437BD4680BC7047002C0140ED
:101FCC00000400400008004080B487B000AF786087
:101FDC0039600023FB6000237B6100233B617B683D
:101FEC001B6A23F001027B681A627B681B6A7B61A7
:101FFC007B685B683B617B689B69FB60FB6823F0DB
:10200C007003FB60FB6823F00303FB603B681B68F9
:10201C00FA681343FB607B6923F002037B613B6826
:10202C009B687A6913437B617B681C4A93420CD191
:10203C007B6923F008037B613B68DB687A69134397
:10204C007B617B6923F004037B617B68134A9342B9
:10205C0011D13B6923F480733B613B6923F400731A
:10206C003B613B685B693A6913433B613B689B6925
:10207C003A6913433B617B683A695A607B68FA683A
:10208C009A613B685A687B685A637B687A691A6202
:10209C0000BF1C37BD4680BC704700BF002C014000
:1020AC0080B487B000AF786039600023FB600023F8
:1020BC007B6100233B617B681B6A23F010027B6809
:1020CC001A627B681B6A7B617B685B683B617B681F
:1020DC009B69FB60FB6823F4E043FB60FB6823F423
:1020EC004073FB603B681B681B02FA681343FB6080
:1020FC007B6923F020037B613B689B681B017A6939
:10210C0013437B617B681D4A93420DD17B6923F09D
:10211C0080037B613B68DB681B017A6913437B613D
:10212C007B6923F040037B617B68144A934213D193
:10213C003B6923F480633B613B6923F400633B619F
:10214C003B685B699B003A6913433B613B689B6945
:10215C009B003A6913433B617B683A695A607B6820
:10216C00FA689A613B685A687B689A637B687A69FB
:10217C001A6200BF1C37BD4680BC7047002C014062
:10218C0080B487B000AF786039600023FB60002317
:10219C007B6100233B617B681B6A23F480727B6844
:1021AC001A627B681B6A7B617B685B683B617B683E
:1021BC00DB69FB60FB6823F07003FB60FB6823F0BA
:1021CC000303FB603B681B68FA681343FB607B6985
:1021DC0023F400737B613B689B681B027A69134391
:1021EC007B617B681D4A93420DD17B6923F40063AC
:1021FC007B613B68DB681B027A6913437B617B69FB
:10220C0023F480637B617B68144A934213D13B694E
:10221C0023F480533B613B6923F400533B613B68DF
:10222C005B691B013A6913433B613B689B691B016A
:10223C003A6913433B617B683A695A607B68FA6878
:10224C00DA613B685A687B68DA637B687A691A6280
:10225C0000BF1C37BD4680BC704700BF002C01403E
:10226C0080B487B000AF7860396000233B610023F5
:10227C00FB6000237B617B681B6A23F480527B68C4
:10228C001A627B681B6AFB607B685B687B617B689E
:10229C00DB693B613B6923F4E0433B613B6923F41D
:1022AC0040733B613B681B681B023A6913433B61FB
:1022BC00FB6823F40053FB603B689B681B03FA68C4
:1022CC001343FB607B680F4A934209D17B6923F46B
:1022DC0080437B613B685B699B017A6913437B613B
:1022EC007B687A695A607B683A69DA613B685A683C
:1022FC007B681A647B68FA681A6200BF1C37BD469B
:10230C0080BC7047002C014080B487B000AFF860EF
:10231C00B9607A6000237B6100233B61FB681B6A18
:10232C003B61FB681B6A23F00102FB681A62FB68C5
:10233C009B697B617B6923F0F0037B617B681B01EC
:10234C007A6913437B613B6923F00A033B613A6969
:10235C00BB6813433B61FB687A699A61FB683A6915
:10236C001A6200BF1C37BD4680BC704780B487B072
:10237C0000AFF860B9607A6000237B6100233B6199
:10238C00FB681B6A23F01002FB681A62FB689B69EE
:10239C007B61FB681B6A3B617B6923F470437B6147
:1023AC007B681B037A6913437B613B6923F0A003B1
:1023BC003B61BB681B013A6913433B61FB687A695B
:1023CC009A61FB683A691A6200BF1C37BD4680BC33
:1023DC00704780B485B000AF78600B467B800023DB
:1023EC00FB607B689B68FB60FB6823F07003FB6001
:1023FC007B8843F007039BB21A46FB681343FB60D0
:10240C007B68FA689A6000BF1437BD4680BC704781
:10241C0080B487B000AFF860B9607A603B6000238D
:10242C007B61FB689B687B617B6923F47F437B61E9
:10243C003B681A027B681A43BB6813437A691343DF
:10244C007B61FB687A699A6000BF1C37BD4680BC13
:10245C00704780B487B000AFF860B9607A60002331
:10246C007B610122BB6802FA03F37B61FB681A6A89
:10247C007B69DB431A40FB681A62FB681A6A79684D
:10248C00BB6801FA03F31A43FB681A6200BF1C37DE
:10249C00BD4680BC704780B485B000AF78603960B1
:1024AC000023FB607B6893F83C30012B01D10223A5
:1024BC0044E07B68012283F83C20FB6823F0FF0298
:1024CC003B68DB681343FB60FB6823F440723B689A
:1024DC009B681343FB60FB6823F480623B685B687A
:1024EC001343FB60FB6823F400623B681B681343D7
:1024FC00FB60FB6823F480523B681B691343FB6051
:10250C00FB6823F400523B685B691343FB60FB6878
:10251C0023F480423B689B691343FB60FB6823F404
:10252C0000423B689B691343FB607B681B68FA683D
:10253C005A647B68002283F83C2000231846143729
:10254C00BD4680BC704780B483B000AF7860396002
:10255C007B6893F83C30012B01D1022332E07B687D
:10256C00012283F83C207B68022283F83D207B68A3
:10257C001B685A687B681B6822F070025A607B6883
:10258C001B6859683B681A687B681B680A435A6069
:10259C007B681B689A687B681B6822F080029A60D3
:1025AC007B681B6899683B685A687B681B680A43A0
:1025BC009A607B68012283F83D207B68002283F8B7
:1025CC003C20002318460C37BD4680BC70470000E9
:1025DC0070B500260C4D0D4C641BA410A64209D1FD
:1025EC0000F022F800260A4D0A4C641BA410A642E7
:1025FC0005D170BD55F8043B98470136EEE755F808
:10260C00043B98470136F2E774260008742600084C
:10261C00742600087826000803460244934200D131
:10262C00704703F8011BF9E7F8B500BFF8BC08BC0C
:10263C009E467047F8B500BFF8BC08BC9E46704774
:10264C0002030405060708090A0B0C0D0E0F1010E7
:10265C000000000000000000010203040607080946
:08266C0000000000010203045C
:042674003101000828
:042678000D01000848
:0C267C0000A24A04100000000100000051
:0400000508000C31B2
:00000001FF
